{
  "contractName": "Amazon",
  "abi": [
    {
      "inputs": [
        {
          "internalType": "uint256",
          "name": "",
          "type": "uint256"
        }
      ],
      "name": "products",
      "outputs": [
        {
          "internalType": "string",
          "name": "name",
          "type": "string"
        },
        {
          "internalType": "string",
          "name": "description",
          "type": "string"
        },
        {
          "internalType": "uint256",
          "name": "price",
          "type": "uint256"
        },
        {
          "internalType": "string",
          "name": "rating",
          "type": "string"
        },
        {
          "internalType": "string",
          "name": "img",
          "type": "string"
        },
        {
          "internalType": "address",
          "name": "seller",
          "type": "address"
        },
        {
          "internalType": "uint256",
          "name": "purchasecount",
          "type": "uint256"
        }
      ],
      "stateMutability": "view",
      "type": "function"
    },
    {
      "inputs": [
        {
          "internalType": "string",
          "name": "_name",
          "type": "string"
        },
        {
          "internalType": "string",
          "name": "_description",
          "type": "string"
        },
        {
          "internalType": "uint256",
          "name": "_price",
          "type": "uint256"
        },
        {
          "internalType": "string",
          "name": "_rating",
          "type": "string"
        },
        {
          "internalType": "string",
          "name": "_img",
          "type": "string"
        }
      ],
      "name": "listProduct",
      "outputs": [],
      "stateMutability": "nonpayable",
      "type": "function"
    },
    {
      "inputs": [],
      "name": "getProductCount",
      "outputs": [
        {
          "internalType": "uint256",
          "name": "",
          "type": "uint256"
        }
      ],
      "stateMutability": "view",
      "type": "function"
    },
    {
      "inputs": [
        {
          "internalType": "uint256",
          "name": "id",
          "type": "uint256"
        }
      ],
      "name": "purchaseProduct",
      "outputs": [],
      "stateMutability": "payable",
      "type": "function"
    }
  ],
  "bytecode": "0x60806040526000805534801561001457600080fd5b50610d12806100246000396000f3fe60806040526004361061003f5760003560e01c806338e76a03146100445780634a348da9146100605780637827f81f1461008b5780637acc0b20146100b4575b600080fd5b61005e600480360381019061005991906105b4565b6100f7565b005b34801561006c57600080fd5b506100756101a7565b60405161008291906105f0565b60405180910390f35b34801561009757600080fd5b506100b260048036038101906100ad9190610751565b6101b0565b005b3480156100c057600080fd5b506100db60048036038101906100d691906105b4565b6102e8565b6040516100ee97969594939291906108fc565b60405180910390f35b60006001600083815260200190815260200160002090508060020154341461011e57600080fd5b8060050160009054906101000a900473ffffffffffffffffffffffffffffffffffffffff1673ffffffffffffffffffffffffffffffffffffffff166108fc349081150290604051600060405180830381858888f19350505050158015610188573d6000803e3d6000fd5b5080600601600081548092919061019e906109b6565b91905055505050565b60008054905090565b60006040518060e001604052808781526020018681526020018581526020018481526020018381526020013373ffffffffffffffffffffffffffffffffffffffff1681526020016000815250905080600160008054815260200190815260200160002060008201518160000190816102289190610c0a565b50602082015181600101908161023e9190610c0a565b5060408201518160020155606082015181600301908161025e9190610c0a565b5060808201518160040190816102749190610c0a565b5060a08201518160050160006101000a81548173ffffffffffffffffffffffffffffffffffffffff021916908373ffffffffffffffffffffffffffffffffffffffff16021790555060c082015181600601559050506000808154809291906102db906109b6565b9190505550505050505050565b600160205280600052604060002060009150905080600001805461030b90610a2d565b80601f016020809104026020016040519081016040528092919081815260200182805461033790610a2d565b80156103845780601f1061035957610100808354040283529160200191610384565b820191906000526020600020905b81548152906001019060200180831161036757829003601f168201915b50505050509080600101805461039990610a2d565b80601f01602080910402602001604051908101604052809291908181526020018280546103c590610a2d565b80156104125780601f106103e757610100808354040283529160200191610412565b820191906000526020600020905b8154815290600101906020018083116103f557829003601f168201915b50505050509080600201549080600301805461042d90610a2d565b80601f016020809104026020016040519081016040528092919081815260200182805461045990610a2d565b80156104a65780601f1061047b576101008083540402835291602001916104a6565b820191906000526020600020905b81548152906001019060200180831161048957829003601f168201915b5050505050908060040180546104bb90610a2d565b80601f01602080910402602001604051908101604052809291908181526020018280546104e790610a2d565b80156105345780601f1061050957610100808354040283529160200191610534565b820191906000526020600020905b81548152906001019060200180831161051757829003601f168201915b5050505050908060050160009054906101000a900473ffffffffffffffffffffffffffffffffffffffff16908060060154905087565b6000604051905090565b600080fd5b600080fd5b6000819050919050565b6105918161057e565b811461059c57600080fd5b50565b6000813590506105ae81610588565b92915050565b6000602082840312156105ca576105c9610574565b5b60006105d88482850161059f565b91505092915050565b6105ea8161057e565b82525050565b600060208201905061060560008301846105e1565b92915050565b600080fd5b600080fd5b6000601f19601f8301169050919050565b7f4e487b7100000000000000000000000000000000000000000000000000000000600052604160045260246000fd5b61065e82610615565b810181811067ffffffffffffffff8211171561067d5761067c610626565b5b80604052505050565b600061069061056a565b905061069c8282610655565b919050565b600067ffffffffffffffff8211156106bc576106bb610626565b5b6106c582610615565b9050602081019050919050565b82818337600083830152505050565b60006106f46106ef846106a1565b610686565b9050828152602081018484840111156107105761070f610610565b5b61071b8482856106d2565b509392505050565b600082601f8301126107385761073761060b565b5b81356107488482602086016106e1565b91505092915050565b600080600080600060a0868803121561076d5761076c610574565b5b600086013567ffffffffffffffff81111561078b5761078a610579565b5b61079788828901610723565b955050602086013567ffffffffffffffff8111156107b8576107b7610579565b5b6107c488828901610723565b94505060406107d58882890161059f565b935050606086013567ffffffffffffffff8111156107f6576107f5610579565b5b61080288828901610723565b925050608086013567ffffffffffffffff81111561082357610822610579565b5b61082f88828901610723565b9150509295509295909350565b600081519050919050565b600082825260208201905092915050565b60005b8381101561087657808201518184015260208101905061085b565b60008484015250505050565b600061088d8261083c565b6108978185610847565b93506108a7818560208601610858565b6108b081610615565b840191505092915050565b600073ffffffffffffffffffffffffffffffffffffffff82169050919050565b60006108e6826108bb565b9050919050565b6108f6816108db565b82525050565b600060e0820190508181036000830152610916818a610882565b9050818103602083015261092a8189610882565b905061093960408301886105e1565b818103606083015261094b8187610882565b9050818103608083015261095f8186610882565b905061096e60a08301856108ed565b61097b60c08301846105e1565b98975050505050505050565b7f4e487b7100000000000000000000000000000000000000000000000000000000600052601160045260246000fd5b60006109c18261057e565b91507fffffffffffffffffffffffffffffffffffffffffffffffffffffffffffffffff82036109f3576109f2610987565b5b600182019050919050565b7f4e487b7100000000000000000000000000000000000000000000000000000000600052602260045260246000fd5b60006002820490506001821680610a4557607f821691505b602082108103610a5857610a576109fe565b5b50919050565b60008190508160005260206000209050919050565b60006020601f8301049050919050565b600082821b905092915050565b600060088302610ac07fffffffffffffffffffffffffffffffffffffffffffffffffffffffffffffffff82610a83565b610aca8683610a83565b95508019841693508086168417925050509392505050565b6000819050919050565b6000610b07610b02610afd8461057e565b610ae2565b61057e565b9050919050565b6000819050919050565b610b2183610aec565b610b35610b2d82610b0e565b848454610a90565b825550505050565b600090565b610b4a610b3d565b610b55818484610b18565b505050565b5b81811015610b7957610b6e600082610b42565b600181019050610b5b565b5050565b601f821115610bbe57610b8f81610a5e565b610b9884610a73565b81016020851015610ba7578190505b610bbb610bb385610a73565b830182610b5a565b50505b505050565b600082821c905092915050565b6000610be160001984600802610bc3565b1980831691505092915050565b6000610bfa8383610bd0565b9150826002028217905092915050565b610c138261083c565b67ffffffffffffffff811115610c2c57610c2b610626565b5b610c368254610a2d565b610c41828285610b7d565b600060209050601f831160018114610c745760008415610c62578287015190505b610c6c8582610bee565b865550610cd4565b601f198416610c8286610a5e565b60005b82811015610caa57848901518255600182019150602085019450602081019050610c85565b86831015610cc75784890151610cc3601f891682610bd0565b8355505b6001600288020188555050505b50505050505056fea26469706673582212203bfdf178c2603b93537d221874a39f4dba0a2c250aba621805d90b897db13acb64736f6c63430008120033",
  "immutableReferences": {},
  "source": "// SPDX-License-Identifier: MIT\r\n\r\npragma solidity ^0.8.6;\r\n\r\ncontract Amazon{\r\n    struct Product{\r\n        string name;\r\n        string description;\r\n        uint price;\r\n        string rating;\r\n        string img;\r\n        address seller;\r\n        uint purchasecount;\r\n    }\r\n    uint productcount=0;\r\n    mapping(uint=>Product) public products;\r\n\r\n    function listProduct(\r\n        string memory _name,\r\n        string memory _description,\r\n        uint _price,\r\n        string memory _rating,\r\n        string memory _img\r\n    ) public {\r\n\r\n        Product memory newProduct = Product({\r\n            name: _name,\r\n            description: _description,\r\n            price: _price,\r\n            rating: _rating,\r\n            img: _img,\r\n            seller: msg.sender,\r\n            purchasecount: 0\r\n        });\r\n        products[productcount] = newProduct;\r\n        productcount++;\r\n    }\r\n\r\n    function getProductCount() public view returns(uint){\r\n        return productcount;\r\n    }\r\n\r\n    function purchaseProduct(uint id) public payable{\r\n        Product storage product = products[id];\r\n        require(msg.value==product.price);\r\n        payable(product.seller).transfer(msg.value);\r\n        product.purchasecount++;\r\n    }\r\n}",
  "sourcePath": "C:\\Users\\jonyj\\Documents\\Project\\Ongoing\\Amazon Web 3.0 Clone\\amazon-web3-clone\\contracts\\Amazon.sol",
  "compiler": {
    "name": "solc",
    "version": "0.8.18+commit.87f61d96.Emscripten.clang"
  },
  "schemaVersion": "3.4.11",
  "updatedAt": "2023-02-07T16:37:48.584Z",
  "devdoc": {
    "kind": "dev",
    "methods": {},
    "version": 1
  },
  "userdoc": {
    "kind": "user",
    "methods": {},
    "version": 1
  }
}